:020000000029D5
:10000800A200030EA30003138312061C2114861CEE
:10001800A114031383120B100B1D17280B11A00A30
:10002800B23081001A280B1C1A280B10230E8300EB
:06003800A20E220E0900D9
:10020000031383160F178F120F160F140313831681
:1002100006148614870103178316880189010313C6
:1002200083168112811101158114011081130313AA
:100230008312860188018701A001B2308100031377
:1002400083120B118B168B178B150B100313831650
:1002500016149614061486148801031383161514B5
:100260009514A101870A43213B212008323C031D3C
:100270003329A0013229A11C080088030F30081A75
:100280008800A1010800211C0800880A081A8801BA
:04029000A1010800C0
:04400E00D420FF3F7C
:00000001FF
