:020000000029D5
:10000800F000030EF10003138312061C7314861C00
:10001800F3140B100B1D15280B11F20AB2308100D6
:1000280018280B1C18280B10710E8300F00E700E88
:020038000900BD
:10020000031383160F178F120F160F140313831681
:1002100006148614870103178316880189010313C6
:1002200083168112811101158114011081130313AA
:100230008312860188018701F201B23081000B111F
:100240008B168B178B150B1003138316161496142D
:100250000614861488010313831615149514F301EC
:10026000870A412139217208323C031D3129F201EC
:100270003029F31C080088030F30081A8800F301A6
:100280000800731C0800880A081A8801F301080096
:04400E00E430FF3E5D
:00000001FF
