:020000000029D5
:10000800A300030EA400031383120B100B1D112869
:100018000B11A10AB23081001A280B1C1A280B10E8
:1000280003138312061C2214861CA214240E8300B8
:06003800A30E230E0900D7
:10020000031383160F178F120F160F140313831681
:1002100006148614880103178316880189010313C5
:1002200083168112811101158114011081130313AA
:100230008312860188018701A101B2308100031376
:1002400083120B118B168B178B150B100313831650
:1002500016149614061486148801031383161514B5
:100260009514A201870A43213B212108323C031D3A
:100270003329A1013229A21C080088030F30081A73
:10028000A000A2010800221C0800880A081A8801A0
:04029000A2010800BF
:04400E00D420FF3F7C
:00000001FF
